:020000040000FA
:0400000040EF3FF09E
:107E3E0005C083FF8290828253EC3FF08292120043
:107E4E00056E05C083FF8280828253EC3FF08292E2
:107E5E00120000000A1F1F0E040000000A15110A6E
:107E6E0004000E0E150E04040A110E0E04041F0457
:107E7E000A0A600EF66E7E0EF76E000EF86E00EEBB
:107E8E002EF010EE20F00900F5CFEEFFE550E15098
:107E9E00FAE10001A8EF3FF0000E026E000E016E37
:107EAE00000E046E000E036E034A042A04BE69EF30
:107EBE003FF0045009E1320E035CD8A069EF3FF0A9
:107ECE006BEF3FF05BEF3FF0014A022A02BE79EF03
:107EDE003FF0025009E1320E015CD8A079EF3FF07D
:107EEE007BEF3FF057EF3FF012000950080DF3CF34
:107EFE000AF0F4CF0BF0400E0A24056E000E0B2094
:107F0E00066E1FEC3FF0000E0D6E000E0C6E0C5048
:107F1E000724D96E0D500820DA6EDF5027EC3FF0A3
:107F2E000C4A0D2A0DBEA5EF3FF00D5009E1080ECB
:107F3E000C5CD8A0A5EF3FF0A7EF3FF08EEF3FF01F
:107F4E00120020EE46F010EE26F0070EDBCFE3FF18
:107F5E00E806FCE220EE3EF010EE0EF0070EDBCF50
:107F6E00E3FFE806FCE220EE36F010EE16F0070E08
:107F7E00DBCFE3FFE806FCE220EE2EF010EE1EF063
:107F8E00070EDBCFE3FFE806FCE2000E926E000E5A
:107F9E00946E000E956E000E936E0F0EC16E000E57
:107FAE00066E380E056E1FEC3FF0000E066E800E4C
:107FBE00056E1FEC3FF0000E066E010E056E1FECF7
:107FCE003FF0000E066E060E056E1FEC3FF0000E23
:107FDE00066E0C0E056E1FEC3FF0260E076E000EA1
:107FEE00086E010E096E7CEC3FF0FCEF3FF000EFE7
:027FFE0000F091
:020000040020DA
:08000000FFFFFFFFFFFFFFFF00
:020000040030CA
:0E000000FF071F1FFF8285FF0FC00FE00F409C
:00000001FF
